{
  "_format": "hh-sol-artifact-1",
  "contractName": "NFTCredential",
  "sourceName": "contracts/NFTCredential.sol",
  "abi": [
    {
      "inputs": [
        {
          "internalType": "string",
          "name": "_name",
          "type": "string"
        },
        {
          "internalType": "string",
          "name": "_symbol",
          "type": "string"
        },
        {
          "internalType": "uint256",
          "name": "_newMaxBatchSize",
          "type": "uint256"
        }
      ],
      "stateMutability": "nonpayable",
      "type": "constructor"
    },
    {
      "inputs": [],
      "name": "ApprovalCallerNotOwnerNorApproved",
      "type": "error"
    },
    {
      "inputs": [],
      "name": "ApprovalQueryForNonexistentToken",
      "type": "error"
    },
    {
      "inputs": [],
      "name": "ApproveToCaller",
      "type": "error"
    },
    {
      "inputs": [],
      "name": "BalanceQueryForZeroAddress",
      "type": "error"
    },
    {
      "inputs": [],
      "name": "MintERC2309QuantityExceedsLimit",
      "type": "error"
    },
    {
      "inputs": [],
      "name": "MintToZeroAddress",
      "type": "error"
    },
    {
      "inputs": [],
      "name": "MintZeroQuantity",
      "type": "error"
    },
    {
      "inputs": [],
      "name": "OwnerQueryForNonexistentToken",
      "type": "error"
    },
    {
      "inputs": [],
      "name": "OwnershipNotInitializedForExtraData",
      "type": "error"
    },
    {
      "inputs": [],
      "name": "TransferCallerNotOwnerNorApproved",
      "type": "error"
    },
    {
      "inputs": [],
      "name": "TransferFromIncorrectOwner",
      "type": "error"
    },
    {
      "inputs": [],
      "name": "TransferToNonERC721ReceiverImplementer",
      "type": "error"
    },
    {
      "inputs": [],
      "name": "TransferToZeroAddress",
      "type": "error"
    },
    {
      "inputs": [],
      "name": "URIQueryForNonexistentToken",
      "type": "error"
    },
    {
      "anonymous": false,
      "inputs": [
        {
          "indexed": true,
          "internalType": "address",
          "name": "owner",
          "type": "address"
        },
        {
          "indexed": true,
          "internalType": "address",
          "name": "approved",
          "type": "address"
        },
        {
          "indexed": true,
          "internalType": "uint256",
          "name": "tokenId",
          "type": "uint256"
        }
      ],
      "name": "Approval",
      "type": "event"
    },
    {
      "anonymous": false,
      "inputs": [
        {
          "indexed": true,
          "internalType": "address",
          "name": "owner",
          "type": "address"
        },
        {
          "indexed": true,
          "internalType": "address",
          "name": "operator",
          "type": "address"
        },
        {
          "indexed": false,
          "internalType": "bool",
          "name": "approved",
          "type": "bool"
        }
      ],
      "name": "ApprovalForAll",
      "type": "event"
    },
    {
      "anonymous": false,
      "inputs": [
        {
          "indexed": true,
          "internalType": "uint256",
          "name": "fromTokenId",
          "type": "uint256"
        },
        {
          "indexed": false,
          "internalType": "uint256",
          "name": "toTokenId",
          "type": "uint256"
        },
        {
          "indexed": true,
          "internalType": "address",
          "name": "from",
          "type": "address"
        },
        {
          "indexed": true,
          "internalType": "address",
          "name": "to",
          "type": "address"
        }
      ],
      "name": "ConsecutiveTransfer",
      "type": "event"
    },
    {
      "anonymous": false,
      "inputs": [
        {
          "indexed": true,
          "internalType": "address",
          "name": "previousOwner",
          "type": "address"
        },
        {
          "indexed": true,
          "internalType": "address",
          "name": "newOwner",
          "type": "address"
        }
      ],
      "name": "OwnershipTransferred",
      "type": "event"
    },
    {
      "anonymous": false,
      "inputs": [
        {
          "indexed": true,
          "internalType": "address",
          "name": "from",
          "type": "address"
        },
        {
          "indexed": true,
          "internalType": "address",
          "name": "to",
          "type": "address"
        },
        {
          "indexed": true,
          "internalType": "uint256",
          "name": "tokenId",
          "type": "uint256"
        }
      ],
      "name": "Transfer",
      "type": "event"
    },
    {
      "inputs": [
        {
          "internalType": "address",
          "name": "to",
          "type": "address"
        },
        {
          "internalType": "uint256",
          "name": "tokenId",
          "type": "uint256"
        }
      ],
      "name": "approve",
      "outputs": [],
      "stateMutability": "nonpayable",
      "type": "function"
    },
    {
      "inputs": [
        {
          "internalType": "address",
          "name": "owner",
          "type": "address"
        }
      ],
      "name": "balanceOf",
      "outputs": [
        {
          "internalType": "uint256",
          "name": "",
          "type": "uint256"
        }
      ],
      "stateMutability": "view",
      "type": "function"
    },
    {
      "inputs": [
        {
          "internalType": "uint256",
          "name": "tokenId",
          "type": "uint256"
        }
      ],
      "name": "getApproved",
      "outputs": [
        {
          "internalType": "address",
          "name": "",
          "type": "address"
        }
      ],
      "stateMutability": "view",
      "type": "function"
    },
    {
      "inputs": [],
      "name": "getMaxBatchSize",
      "outputs": [
        {
          "internalType": "uint256",
          "name": "",
          "type": "uint256"
        }
      ],
      "stateMutability": "view",
      "type": "function"
    },
    {
      "inputs": [
        {
          "internalType": "address",
          "name": "owner",
          "type": "address"
        },
        {
          "internalType": "address",
          "name": "operator",
          "type": "address"
        }
      ],
      "name": "isApprovedForAll",
      "outputs": [
        {
          "internalType": "bool",
          "name": "",
          "type": "bool"
        }
      ],
      "stateMutability": "view",
      "type": "function"
    },
    {
      "inputs": [
        {
          "internalType": "string",
          "name": "_credentialId",
          "type": "string"
        },
        {
          "internalType": "string",
          "name": "_description",
          "type": "string"
        },
        {
          "internalType": "address[]",
          "name": "_toAddresses",
          "type": "address[]"
        },
        {
          "internalType": "string[]",
          "name": "_imageURIs",
          "type": "string[]"
        },
        {
          "internalType": "string[]",
          "name": "_externalURIs",
          "type": "string[]"
        }
      ],
      "name": "mintAndTransfer",
      "outputs": [],
      "stateMutability": "nonpayable",
      "type": "function"
    },
    {
      "inputs": [],
      "name": "name",
      "outputs": [
        {
          "internalType": "string",
          "name": "",
          "type": "string"
        }
      ],
      "stateMutability": "view",
      "type": "function"
    },
    {
      "inputs": [
        {
          "internalType": "uint256",
          "name": "tokenId",
          "type": "uint256"
        }
      ],
      "name": "ownedCredential",
      "outputs": [
        {
          "internalType": "string",
          "name": "",
          "type": "string"
        }
      ],
      "stateMutability": "view",
      "type": "function"
    },
    {
      "inputs": [],
      "name": "owner",
      "outputs": [
        {
          "internalType": "address",
          "name": "",
          "type": "address"
        }
      ],
      "stateMutability": "view",
      "type": "function"
    },
    {
      "inputs": [
        {
          "internalType": "uint256",
          "name": "tokenId",
          "type": "uint256"
        }
      ],
      "name": "ownerOf",
      "outputs": [
        {
          "internalType": "address",
          "name": "",
          "type": "address"
        }
      ],
      "stateMutability": "view",
      "type": "function"
    },
    {
      "inputs": [],
      "name": "renounceOwnership",
      "outputs": [],
      "stateMutability": "nonpayable",
      "type": "function"
    },
    {
      "inputs": [
        {
          "internalType": "address",
          "name": "from",
          "type": "address"
        },
        {
          "internalType": "address",
          "name": "to",
          "type": "address"
        },
        {
          "internalType": "uint256",
          "name": "tokenId",
          "type": "uint256"
        }
      ],
      "name": "safeTransferFrom",
      "outputs": [],
      "stateMutability": "nonpayable",
      "type": "function"
    },
    {
      "inputs": [
        {
          "internalType": "address",
          "name": "from",
          "type": "address"
        },
        {
          "internalType": "address",
          "name": "to",
          "type": "address"
        },
        {
          "internalType": "uint256",
          "name": "tokenId",
          "type": "uint256"
        },
        {
          "internalType": "bytes",
          "name": "_data",
          "type": "bytes"
        }
      ],
      "name": "safeTransferFrom",
      "outputs": [],
      "stateMutability": "nonpayable",
      "type": "function"
    },
    {
      "inputs": [
        {
          "internalType": "address",
          "name": "operator",
          "type": "address"
        },
        {
          "internalType": "bool",
          "name": "approved",
          "type": "bool"
        }
      ],
      "name": "setApprovalForAll",
      "outputs": [],
      "stateMutability": "nonpayable",
      "type": "function"
    },
    {
      "inputs": [
        {
          "internalType": "uint256",
          "name": "_newMaxBatchSize",
          "type": "uint256"
        }
      ],
      "name": "setMaxBatchSize",
      "outputs": [],
      "stateMutability": "nonpayable",
      "type": "function"
    },
    {
      "inputs": [
        {
          "internalType": "bytes4",
          "name": "interfaceId",
          "type": "bytes4"
        }
      ],
      "name": "supportsInterface",
      "outputs": [
        {
          "internalType": "bool",
          "name": "",
          "type": "bool"
        }
      ],
      "stateMutability": "view",
      "type": "function"
    },
    {
      "inputs": [],
      "name": "symbol",
      "outputs": [
        {
          "internalType": "string",
          "name": "",
          "type": "string"
        }
      ],
      "stateMutability": "view",
      "type": "function"
    },
    {
      "inputs": [
        {
          "internalType": "uint256",
          "name": "tokenId",
          "type": "uint256"
        }
      ],
      "name": "tokenURI",
      "outputs": [
        {
          "internalType": "string",
          "name": "",
          "type": "string"
        }
      ],
      "stateMutability": "view",
      "type": "function"
    },
    {
      "inputs": [],
      "name": "totalSupply",
      "outputs": [
        {
          "internalType": "uint256",
          "name": "",
          "type": "uint256"
        }
      ],
      "stateMutability": "view",
      "type": "function"
    },
    {
      "inputs": [
        {
          "internalType": "address",
          "name": "from",
          "type": "address"
        },
        {
          "internalType": "address",
          "name": "to",
          "type": "address"
        },
        {
          "internalType": "uint256",
          "name": "tokenId",
          "type": "uint256"
        }
      ],
      "name": "transferFrom",
      "outputs": [],
      "stateMutability": "nonpayable",
      "type": "function"
    },
    {
      "inputs": [
        {
          "internalType": "address",
          "name": "newOwner",
          "type": "address"
        }
      ],
      "name": "transferOwnership",
      "outputs": [],
      "stateMutability": "nonpayable",
      "type": "function"
    },
    {
      "inputs": [
        {
          "internalType": "uint256",
          "name": "tokenId",
          "type": "uint256"
        },
        {
          "internalType": "string",
          "name": "_credentialId",
          "type": "string"
        },
        {
          "internalType": "string",
          "name": "_description",
          "type": "string"
        },
        {
          "internalType": "string",
          "name": "_imageURI",
          "type": "string"
        },
        {
          "internalType": "string",
          "name": "_externalURI",
          "type": "string"
        }
      ],
      "name": "updateNFT",
      "outputs": [],
      "stateMutability": "nonpayable",
      "type": "function"
    }
  ],
  "bytecode": "0x60806040523480156200001157600080fd5b506040516200421a3803806200421a8339818101604052810190620000379190620002bf565b828281600290805190602001906200005192919062000186565b5080600390805190602001906200006a92919062000186565b506200007b620000b360201b60201c565b6000819055505050620000a362000097620000b860201b60201c565b620000c060201b60201c565b80600981905550505050620004db565b600090565b600033905090565b6000600860009054906101000a900473ffffffffffffffffffffffffffffffffffffffff16905081600860006101000a81548173ffffffffffffffffffffffffffffffffffffffff021916908373ffffffffffffffffffffffffffffffffffffffff1602179055508173ffffffffffffffffffffffffffffffffffffffff168173ffffffffffffffffffffffffffffffffffffffff167f8be0079c531659141344cd1fd0a4f28419497f9722a3daafe3b4186f6b6457e060405160405180910390a35050565b8280546200019490620003e6565b90600052602060002090601f016020900481019282620001b8576000855562000204565b82601f10620001d357805160ff191683800117855562000204565b8280016001018555821562000204579182015b8281111562000203578251825591602001919060010190620001e6565b5b50905062000213919062000217565b5090565b5b808211156200023257600081600090555060010162000218565b5090565b60006200024d620002478462000370565b62000347565b9050828152602081018484840111156200026657600080fd5b62000273848285620003b0565b509392505050565b600082601f8301126200028d57600080fd5b81516200029f84826020860162000236565b91505092915050565b600081519050620002b981620004c1565b92915050565b600080600060608486031215620002d557600080fd5b600084015167ffffffffffffffff811115620002f057600080fd5b620002fe868287016200027b565b935050602084015167ffffffffffffffff8111156200031c57600080fd5b6200032a868287016200027b565b92505060406200033d86828701620002a8565b9150509250925092565b60006200035362000366565b90506200036182826200041c565b919050565b6000604051905090565b600067ffffffffffffffff8211156200038e576200038d62000481565b5b6200039982620004b0565b9050602081019050919050565b6000819050919050565b60005b83811015620003d0578082015181840152602081019050620003b3565b83811115620003e0576000848401525b50505050565b60006002820490506001821680620003ff57607f821691505b6020821081141562000416576200041562000452565b5b50919050565b6200042782620004b0565b810181811067ffffffffffffffff8211171562000449576200044862000481565b5b80604052505050565b7f4e487b7100000000000000000000000000000000000000000000000000000000600052602260045260246000fd5b7f4e487b7100000000000000000000000000000000000000000000000000000000600052604160045260246000fd5b6000601f19601f8301169050919050565b620004cc81620003a6565b8114620004d857600080fd5b50565b613d2f80620004eb6000396000f3fe608060405234801561001057600080fd5b50600436106101415760003560e01c806370a08231116100b8578063b88d4fde1161007c578063b88d4fde1461034c578063c233813914610368578063c87b56dd14610398578063e7c00f6e146103c8578063e985e9c5146103e6578063f2fde38b1461041657610141565b806370a08231146102ba578063715018a6146102ea5780638da5cb5b146102f457806395d89b4114610312578063a22cb4651461033057610141565b806318160ddd1161010a57806318160ddd146101fc57806323b872dd1461021a5780632b26a6bf146102365780633e72e0391461025257806342842e0e1461026e5780636352211e1461028a57610141565b80629a654e1461014657806301ffc9a71461016257806306fdde0314610192578063081812fc146101b0578063095ea7b3146101e0575b600080fd5b610160600480360381019061015b9190612af7565b610432565b005b61017c6004803603810190610177919061298d565b6105a3565b6040516101899190613111565b60405180910390f35b61019a610635565b6040516101a7919061312c565b60405180910390f35b6101ca60048036038101906101c59190612ace565b6106c7565b6040516101d791906130aa565b60405180910390f35b6101fa60048036038101906101f59190612951565b610746565b005b61020461088a565b604051610211919061330e565b60405180910390f35b610234600480360381019061022f919061284b565b6108a1565b005b610250600480360381019061024b9190612ace565b610b50565b005b61026c600480360381019061026791906129df565b610b62565b005b6102886004803603810190610283919061284b565b610f75565b005b6102a4600480360381019061029f9190612ace565b610f95565b6040516102b191906130aa565b60405180910390f35b6102d460048036038101906102cf91906127e6565b610fa7565b6040516102e1919061330e565b60405180910390f35b6102f2611060565b005b6102fc611074565b60405161030991906130aa565b60405180910390f35b61031a61109e565b604051610327919061312c565b60405180910390f35b61034a60048036038101906103459190612915565b611130565b005b6103666004803603810190610361919061289a565b6112a8565b005b610382600480360381019061037d9190612ace565b61131b565b60405161038f919061312c565b60405180910390f35b6103b260048036038101906103ad9190612ace565b611410565b6040516103bf919061312c565b60405180910390f35b6103d061152c565b6040516103dd919061330e565b60405180910390f35b61040060048036038101906103fb919061280f565b61153e565b60405161040d9190613111565b60405180910390f35b610430600480360381019061042b91906127e6565b6115d2565b005b61043a611631565b60006104458661131b565b90506000818051906020012090506000868051906020012090508082146105855786600a60008a8152602001908152602001600020908051906020019061048d9291906124c4565b50600061049989610f95565b90506000600b856040516104ad9190612fa0565b908152602001604051809103902060008373ffffffffffffffffffffffffffffffffffffffff1673ffffffffffffffffffffffffffffffffffffffff16815260200190815260200160002060006101000a81548160ff0219169083151502179055506001600b896040516105219190612fa0565b908152602001604051809103902060008373ffffffffffffffffffffffffffffffffffffffff1673ffffffffffffffffffffffffffffffffffffffff16815260200190815260200160002060006101000a81548160ff021916908315150217905550505b610599886105948888886116af565b611739565b5050505050505050565b60006301ffc9a760e01b827bffffffffffffffffffffffffffffffffffffffffffffffffffffffff191614806105fe57506380ac58cd60e01b827bffffffffffffffffffffffffffffffffffffffffffffffffffffffff1916145b8061062e5750635b5e139f60e01b827bffffffffffffffffffffffffffffffffffffffffffffffffffffffff1916145b9050919050565b606060028054610644906135e2565b80601f0160208091040260200160405190810160405280929190818152602001828054610670906135e2565b80156106bd5780601f10610692576101008083540402835291602001916106bd565b820191906000526020600020905b8154815290600101906020018083116106a057829003601f168201915b5050505050905090565b60006106d2826117ad565b610708576040517fcf4700e400000000000000000000000000000000000000000000000000000000815260040160405180910390fd5b6006600083815260200190815260200160002060000160009054906101000a900473ffffffffffffffffffffffffffffffffffffffff169050919050565b600061075182610f95565b90508073ffffffffffffffffffffffffffffffffffffffff1661077261180c565b73ffffffffffffffffffffffffffffffffffffffff16146107d55761079e8161079961180c565b61153e565b6107d4576040517fcfb3b94200000000000000000000000000000000000000000000000000000000815260040160405180910390fd5b5b826006600084815260200190815260200160002060000160006101000a81548173ffffffffffffffffffffffffffffffffffffffff021916908373ffffffffffffffffffffffffffffffffffffffff160217905550818373ffffffffffffffffffffffffffffffffffffffff168273ffffffffffffffffffffffffffffffffffffffff167f8c5be1e5ebec7d5bd14f71427d1e84f3dd0314c0f7b2291e5b200ac8c7c3b92560405160405180910390a4505050565b6000610894611814565b6001546000540303905090565b6108a9611631565b60006108b482610f95565b90508073ffffffffffffffffffffffffffffffffffffffff168473ffffffffffffffffffffffffffffffffffffffff1614610924576040517f08c379a000000000000000000000000000000000000000000000000000000000815260040161091b906131ce565b60405180910390fd5b61092c611074565b73ffffffffffffffffffffffffffffffffffffffff168373ffffffffffffffffffffffffffffffffffffffff16141561099a576040517f08c379a00000000000000000000000000000000000000000000000000000000081526004016109919061318e565b60405180910390fd5b60006109a58361131b565b90506000600b826040516109b99190612fa0565b908152602001604051809103902060008673ffffffffffffffffffffffffffffffffffffffff1673ffffffffffffffffffffffffffffffffffffffff16815260200190815260200160002060009054906101000a900460ff1690508015610a55576040517f08c379a0000000000000000000000000000000000000000000000000000000008152600401610a4c9061320e565b60405180910390fd5b610a60868686611819565b6000600b83604051610a729190612fa0565b908152602001604051809103902060008873ffffffffffffffffffffffffffffffffffffffff1673ffffffffffffffffffffffffffffffffffffffff16815260200190815260200160002060006101000a81548160ff0219169083151502179055506001600b83604051610ae69190612fa0565b908152602001604051809103902060008773ffffffffffffffffffffffffffffffffffffffff1673ffffffffffffffffffffffffffffffffffffffff16815260200190815260200160002060006101000a81548160ff021916908315150217905550505050505050565b610b58611631565b8060098190555050565b610b6a611631565b60008351905060008111610bb3576040517f08c379a0000000000000000000000000000000000000000000000000000000008152600401610baa906132ce565b60405180910390fd5b610bbb61152c565b811115610bfd576040517f08c379a0000000000000000000000000000000000000000000000000000000008152600401610bf4906131ae565b60405180910390fd5b82518114610c40576040517f08c379a0000000000000000000000000000000000000000000000000000000008152600401610c37906132ee565b60405180910390fd5b81518114610c83576040517f08c379a0000000000000000000000000000000000000000000000000000000008152600401610c7a906132ae565b60405180910390fd5b60005b81811015610e0c576000858281518110610cc9577f4e487b7100000000000000000000000000000000000000000000000000000000600052603260045260246000fd5b602002602001015190506000600b89604051610ce59190612fa0565b908152602001604051809103902060008373ffffffffffffffffffffffffffffffffffffffff1673ffffffffffffffffffffffffffffffffffffffff16815260200190815260200160002060009054906101000a900460ff1690508015610d81576040517f08c379a0000000000000000000000000000000000000000000000000000000008152600401610d789061322e565b60405180910390fd5b610d89611074565b73ffffffffffffffffffffffffffffffffffffffff168273ffffffffffffffffffffffffffffffffffffffff161415610df7576040517f08c379a0000000000000000000000000000000000000000000000000000000008152600401610dee906131ee565b60405180910390fd5b50508080610e0490613645565b915050610c86565b506000610e17611b3e565b9050610e2a610e24611074565b83611b47565b600081905060005b83811015610f6a5788600a60008481526020019081526020016000209080519060200190610e619291906124c4565b50610eb4610e6d611074565b888381518110610ea6577f4e487b7100000000000000000000000000000000000000000000000000000000600052603260045260246000fd5b602002602001015184610f75565b610f4882610f438a898581518110610ef5577f4e487b7100000000000000000000000000000000000000000000000000000000600052603260045260246000fd5b6020026020010151898681518110610f36577f4e487b7100000000000000000000000000000000000000000000000000000000600052603260045260246000fd5b60200260200101516116af565b611739565b600182610f55919061344b565b91508080610f6290613645565b915050610e32565b505050505050505050565b610f90838383604051806020016040528060008152506112a8565b505050565b6000610fa082611b65565b9050919050565b60008073ffffffffffffffffffffffffffffffffffffffff168273ffffffffffffffffffffffffffffffffffffffff16141561100f576040517f8f4eb60400000000000000000000000000000000000000000000000000000000815260040160405180910390fd5b67ffffffffffffffff600560008473ffffffffffffffffffffffffffffffffffffffff1673ffffffffffffffffffffffffffffffffffffffff16815260200190815260200160002054169050919050565b611068611631565b6110726000611c33565b565b6000600860009054906101000a900473ffffffffffffffffffffffffffffffffffffffff16905090565b6060600380546110ad906135e2565b80601f01602080910402602001604051908101604052809291908181526020018280546110d9906135e2565b80156111265780601f106110fb57610100808354040283529160200191611126565b820191906000526020600020905b81548152906001019060200180831161110957829003601f168201915b5050505050905090565b61113861180c565b73ffffffffffffffffffffffffffffffffffffffff168273ffffffffffffffffffffffffffffffffffffffff16141561119d576040517fb06307db00000000000000000000000000000000000000000000000000000000815260040160405180910390fd5b80600760006111aa61180c565b73ffffffffffffffffffffffffffffffffffffffff1673ffffffffffffffffffffffffffffffffffffffff16815260200190815260200160002060008473ffffffffffffffffffffffffffffffffffffffff1673ffffffffffffffffffffffffffffffffffffffff16815260200190815260200160002060006101000a81548160ff0219169083151502179055508173ffffffffffffffffffffffffffffffffffffffff1661125761180c565b73ffffffffffffffffffffffffffffffffffffffff167f17307eab39ab6107e8899845ad3d59bd9653f200f220920489ca2b5937696c318360405161129c9190613111565b60405180910390a35050565b6112b38484846108a1565b60008373ffffffffffffffffffffffffffffffffffffffff163b14611315576112de84848484611cf9565b611314576040517fd1a57ed600000000000000000000000000000000000000000000000000000000815260040160405180910390fd5b5b50505050565b6060611325611631565b61132e826117ad565b61136d576040517f08c379a00000000000000000000000000000000000000000000000000000000081526004016113649061324e565b60405180910390fd5b600a6000838152602001908152602001600020805461138b906135e2565b80601f01602080910402602001604051908101604052809291908181526020018280546113b7906135e2565b80156114045780601f106113d957610100808354040283529160200191611404565b820191906000526020600020905b8154815290600101906020018083116113e757829003601f168201915b50505050509050919050565b606061141b826117ad565b61142457600080fd5b6000600c60008481526020019081526020016000208054611444906135e2565b80601f0160208091040260200160405190810160405280929190818152602001828054611470906135e2565b80156114bd5780601f10611492576101008083540402835291602001916114bd565b820191906000526020600020905b8154815290600101906020018083116114a057829003601f168201915b5050505050905060006114ce611e59565b90506000815114156114e4578192505050611527565b600082511115611519578082604051602001611501929190612fb7565b60405160208183030381529060405292505050611527565b61152284611e70565b925050505b919050565b6000611536611631565b600954905090565b6000600760008473ffffffffffffffffffffffffffffffffffffffff1673ffffffffffffffffffffffffffffffffffffffff16815260200190815260200160002060008373ffffffffffffffffffffffffffffffffffffffff1673ffffffffffffffffffffffffffffffffffffffff16815260200190815260200160002060009054906101000a900460ff16905092915050565b6115da611631565b60006115e582610fa7565b14611625576040517f08c379a000000000000000000000000000000000000000000000000000000000815260040161161c9061314e565b60405180910390fd5b61162e81611f0f565b50565b611639611f93565b73ffffffffffffffffffffffffffffffffffffffff16611657611074565b73ffffffffffffffffffffffffffffffffffffffff16146116ad576040517f08c379a00000000000000000000000000000000000000000000000000000000081526004016116a49061326e565b60405180910390fd5b565b606060006040516020016116c290612fdb565b6040516020818303038152906040529050600061170c6116e0610635565b878787866040516020016116f8959493929190612ff0565b604051602081830303815290604052611f9b565b90508060405160200161171f9190613088565b604051602081830303815290604052925050509392505050565b611742826117ad565b611781576040517f08c379a00000000000000000000000000000000000000000000000000000000081526004016117789061328e565b60405180910390fd5b80600c600084815260200190815260200160002090805190602001906117a89291906124c4565b505050565b6000816117b8611814565b111580156117c7575060005482105b8015611805575060007c0100000000000000000000000000000000000000000000000000000000600460008581526020019081526020016000205416145b9050919050565b600033905090565b600090565b600061182482611b65565b90508373ffffffffffffffffffffffffffffffffffffffff168173ffffffffffffffffffffffffffffffffffffffff161461188b576040517fa114810000000000000000000000000000000000000000000000000000000000815260040160405180910390fd5b60008061189784612125565b915091506118ad81876118a861180c565b61214c565b6118f9576118c2866118bd61180c565b61153e565b6118f8576040517f59c896be00000000000000000000000000000000000000000000000000000000815260040160405180910390fd5b5b600073ffffffffffffffffffffffffffffffffffffffff168573ffffffffffffffffffffffffffffffffffffffff161415611960576040517fea553b3400000000000000000000000000000000000000000000000000000000815260040160405180910390fd5b61196d8686866001612190565b801561197857600082555b600560008773ffffffffffffffffffffffffffffffffffffffff1673ffffffffffffffffffffffffffffffffffffffff168152602001908152602001600020600081546001900391905081905550600560008673ffffffffffffffffffffffffffffffffffffffff1673ffffffffffffffffffffffffffffffffffffffff1681526020019081526020016000206000815460010191905081905550611a4685611a2288888761219e565b7c0200000000000000000000000000000000000000000000000000000000176121c6565b600460008681526020019081526020016000208190555060007c020000000000000000000000000000000000000000000000000000000084161415611ace576000600185019050600060046000838152602001908152602001600020541415611acc576000548114611acb578360046000838152602001908152602001600020819055505b5b505b838573ffffffffffffffffffffffffffffffffffffffff168773ffffffffffffffffffffffffffffffffffffffff167fddf252ad1be2c89b69c2b068fc378daa952ba7f163c4a11628f55a4df523b3ef60405160405180910390a4611b3686868660016121f1565b505050505050565b60008054905090565b611b618282604051806020016040528060008152506121f7565b5050565b60008082905080611b74611814565b11611bfc57600054811015611bfb5760006004600083815260200190815260200160002054905060007c010000000000000000000000000000000000000000000000000000000082161415611bf9575b6000811415611bef576004600083600190039350838152602001908152602001600020549050611bc4565b8092505050611c2e565b505b5b6040517fdf2d9b4200000000000000000000000000000000000000000000000000000000815260040160405180910390fd5b919050565b6000600860009054906101000a900473ffffffffffffffffffffffffffffffffffffffff16905081600860006101000a81548173ffffffffffffffffffffffffffffffffffffffff021916908373ffffffffffffffffffffffffffffffffffffffff1602179055508173ffffffffffffffffffffffffffffffffffffffff168173ffffffffffffffffffffffffffffffffffffffff167f8be0079c531659141344cd1fd0a4f28419497f9722a3daafe3b4186f6b6457e060405160405180910390a35050565b60008373ffffffffffffffffffffffffffffffffffffffff1663150b7a02611d1f61180c565b8786866040518563ffffffff1660e01b8152600401611d4194939291906130c5565b602060405180830381600087803b158015611d5b57600080fd5b505af1925050508015611d8c57506040513d601f19601f82011682018060405250810190611d8991906129b6565b60015b611e06573d8060008114611dbc576040519150601f19603f3d011682016040523d82523d6000602084013e611dc1565b606091505b50600081511415611dfe576040517fd1a57ed600000000000000000000000000000000000000000000000000000000815260040160405180910390fd5b805181602001fd5b63150b7a0260e01b7bffffffffffffffffffffffffffffffffffffffffffffffffffffffff1916817bffffffffffffffffffffffffffffffffffffffffffffffffffffffff191614915050949350505050565b606060405180602001604052806000815250905090565b6060611e7b826117ad565b611eb1576040517fa14c4b5000000000000000000000000000000000000000000000000000000000815260040160405180910390fd5b6000611ebb611e59565b9050600081511415611edc5760405180602001604052806000815250611f07565b80611ee684612294565b604051602001611ef7929190612fb7565b6040516020818303038152906040525b915050919050565b611f17611631565b600073ffffffffffffffffffffffffffffffffffffffff168173ffffffffffffffffffffffffffffffffffffffff161415611f87576040517f08c379a0000000000000000000000000000000000000000000000000000000008152600401611f7e9061316e565b60405180910390fd5b611f9081611c33565b50565b600033905090565b6060600082511415611fbe57604051806020016040528060008152509050612120565b6000604051806060016040528060408152602001613cba6040913990506000600360028551611fed919061344b565b611ff791906134a1565b600461200391906134d2565b67ffffffffffffffff811115612042577f4e487b7100000000000000000000000000000000000000000000000000000000600052604160045260246000fd5b6040519080825280601f01601f1916602001820160405280156120745781602001600182028036833780820191505090505b509050600182016020820185865187015b808210156120e0576003820191508151603f8160121c168501518453600184019350603f81600c1c168501518453600184019350603f8160061c168501518453600184019350603f8116850151845360018401935050612085565b50506003865106600181146120fc576002811461210f57612117565b603d6001830353603d6002830353612117565b603d60018303535b50505080925050505b919050565b60008060006006600085815260200190815260200160002090508092508254915050915091565b600073ffffffffffffffffffffffffffffffffffffffff8316925073ffffffffffffffffffffffffffffffffffffffff821691508382148383141790509392505050565b612198611631565b50505050565b60008060e883901c905060e86121b58686846122ee565b62ffffff16901b9150509392505050565b600073ffffffffffffffffffffffffffffffffffffffff83169250814260a01b178317905092915050565b50505050565b61220183836122f7565b60008373ffffffffffffffffffffffffffffffffffffffff163b1461228f57600080549050600083820390505b6122416000868380600101945086611cf9565b612277576040517fd1a57ed600000000000000000000000000000000000000000000000000000000815260040160405180910390fd5b81811061222e57816000541461228c57600080fd5b50505b505050565b60606080604051019050806040528082600183039250600a81066030018353600a810490505b80156122da57600183039250600a81066030018353600a810490506122ba565b508181036020830392508083525050919050565b60009392505050565b6000805490506000821415612338576040517fb562e8dd00000000000000000000000000000000000000000000000000000000815260040160405180910390fd5b6123456000848385612190565b600160406001901b178202600560008573ffffffffffffffffffffffffffffffffffffffff1673ffffffffffffffffffffffffffffffffffffffff168152602001908152602001600020600082825401925050819055506123bc836123ad600086600061219e565b6123b6856124b4565b176121c6565b6004600083815260200190815260200160002081905550600080838301905073ffffffffffffffffffffffffffffffffffffffff85169150828260007fddf252ad1be2c89b69c2b068fc378daa952ba7f163c4a11628f55a4df523b3ef600080a4600183015b81811461245d57808360007fddf252ad1be2c89b69c2b068fc378daa952ba7f163c4a11628f55a4df523b3ef600080a4600181019050612422565b506000821415612499576040517f2e07630000000000000000000000000000000000000000000000000000000000815260040160405180910390fd5b8060008190555050506124af60008483856121f1565b505050565b60006001821460e11b9050919050565b8280546124d0906135e2565b90600052602060002090601f0160209004810192826124f25760008555612539565b82601f1061250b57805160ff1916838001178555612539565b82800160010185558215612539579182015b8281111561253857825182559160200191906001019061251d565b5b509050612546919061254a565b5090565b5b8082111561256357600081600090555060010161254b565b5090565b600061257a6125758461334e565b613329565b9050808382526020820190508285602086028201111561259957600080fd5b60005b858110156125c957816125af88826126d5565b84526020840193506020830192505060018101905061259c565b5050509392505050565b60006125e66125e18461337a565b613329565b9050808382526020820190508285602086028201111561260557600080fd5b60005b8581101561264f57813567ffffffffffffffff81111561262757600080fd5b80860161263489826127a7565b85526020850194506020840193505050600181019050612608565b5050509392505050565b600061266c612667846133a6565b613329565b90508281526020810184848401111561268457600080fd5b61268f8482856135a0565b509392505050565b60006126aa6126a5846133d7565b613329565b9050828152602081018484840111156126c257600080fd5b6126cd8482856135a0565b509392505050565b6000813590506126e481613c5d565b92915050565b600082601f8301126126fb57600080fd5b813561270b848260208601612567565b91505092915050565b600082601f83011261272557600080fd5b81356127358482602086016125d3565b91505092915050565b60008135905061274d81613c74565b92915050565b60008135905061276281613c8b565b92915050565b60008151905061277781613c8b565b92915050565b600082601f83011261278e57600080fd5b813561279e848260208601612659565b91505092915050565b600082601f8301126127b857600080fd5b81356127c8848260208601612697565b91505092915050565b6000813590506127e081613ca2565b92915050565b6000602082840312156127f857600080fd5b6000612806848285016126d5565b91505092915050565b6000806040838503121561282257600080fd5b6000612830858286016126d5565b9250506020612841858286016126d5565b9150509250929050565b60008060006060848603121561286057600080fd5b600061286e868287016126d5565b935050602061287f868287016126d5565b9250506040612890868287016127d1565b9150509250925092565b600080600080608085870312156128b057600080fd5b60006128be878288016126d5565b94505060206128cf878288016126d5565b93505060406128e0878288016127d1565b925050606085013567ffffffffffffffff8111156128fd57600080fd5b6129098782880161277d565b91505092959194509250565b6000806040838503121561292857600080fd5b6000612936858286016126d5565b92505060206129478582860161273e565b9150509250929050565b6000806040838503121561296457600080fd5b6000612972858286016126d5565b9250506020612983858286016127d1565b9150509250929050565b60006020828403121561299f57600080fd5b60006129ad84828501612753565b91505092915050565b6000602082840312156129c857600080fd5b60006129d684828501612768565b91505092915050565b600080600080600060a086880312156129f757600080fd5b600086013567ffffffffffffffff811115612a1157600080fd5b612a1d888289016127a7565b955050602086013567ffffffffffffffff811115612a3a57600080fd5b612a46888289016127a7565b945050604086013567ffffffffffffffff811115612a6357600080fd5b612a6f888289016126ea565b935050606086013567ffffffffffffffff811115612a8c57600080fd5b612a9888828901612714565b925050608086013567ffffffffffffffff811115612ab557600080fd5b612ac188828901612714565b9150509295509295909350565b600060208284031215612ae057600080fd5b6000612aee848285016127d1565b91505092915050565b600080600080600060a08688031215612b0f57600080fd5b6000612b1d888289016127d1565b955050602086013567ffffffffffffffff811115612b3a57600080fd5b612b46888289016127a7565b945050604086013567ffffffffffffffff811115612b6357600080fd5b612b6f888289016127a7565b935050606086013567ffffffffffffffff811115612b8c57600080fd5b612b98888289016127a7565b925050608086013567ffffffffffffffff811115612bb557600080fd5b612bc1888289016127a7565b9150509295509295909350565b612bd78161352c565b82525050565b612be68161353e565b82525050565b6000612bf782613408565b612c01818561341e565b9350612c118185602086016135af565b612c1a8161374a565b840191505092915050565b6000612c3082613413565b612c3a818561342f565b9350612c4a8185602086016135af565b612c538161374a565b840191505092915050565b6000612c6982613413565b612c738185613440565b9350612c838185602086016135af565b80840191505092915050565b6000612c9c601283613440565b9150612ca78261375b565b601282019050919050565b6000612cbf60208361342f565b9150612cca82613784565b602082019050919050565b6000612ce260268361342f565b9150612ced826137ad565b604082019050919050565b6000612d05600283613440565b9150612d10826137fc565b600282019050919050565b6000612d2860218361342f565b9150612d3382613825565b604082019050919050565b6000612d4b60478361342f565b9150612d5682613874565b606082019050919050565b6000612d6e601083613440565b9150612d79826138e9565b601082019050919050565b6000612d91601183613440565b9150612d9c82613912565b601182019050919050565b6000612db4602d8361342f565b9150612dbf8261393b565b604082019050919050565b6000612dd760288361342f565b9150612de28261398a565b604082019050919050565b6000612dfa602f8361342f565b9150612e05826139d9565b604082019050919050565b6000612e1d600183613440565b9150612e2882613a28565b600182019050919050565b6000612e40603a8361342f565b9150612e4b82613a51565b604082019050919050565b6000612e63601c8361342f565b9150612e6e82613aa0565b602082019050919050565b6000612e8660208361342f565b9150612e9182613ac9565b602082019050919050565b6000612ea9600a83613440565b9150612eb482613af2565b600a82019050919050565b6000612ecc601c8361342f565b9150612ed782613b1b565b602082019050919050565b6000612eef601d83613440565b9150612efa82613b44565b601d82019050919050565b6000612f12603a8361342f565b9150612f1d82613b6d565b604082019050919050565b6000612f35601a8361342f565b9150612f4082613bbc565b602082019050919050565b6000612f5860378361342f565b9150612f6382613be5565b604082019050919050565b6000612f7b600c83613440565b9150612f8682613c34565b600c82019050919050565b612f9a81613596565b82525050565b6000612fac8284612c5e565b915081905092915050565b6000612fc38285612c5e565b9150612fcf8284612c5e565b91508190509392505050565b6000612fe682612d61565b9150819050919050565b6000612ffb82612e9c565b91506130078288612c5e565b915061301282612c8f565b915061301e8287612c5e565b915061302982612f6e565b91506130358286612c5e565b915061304082612cf8565b915061304b82612d84565b91506130578285612c5e565b915061306282612cf8565b915061306e8284612c5e565b915061307982612e10565b91508190509695505050505050565b600061309382612ee2565b915061309f8284612c5e565b915081905092915050565b60006020820190506130bf6000830184612bce565b92915050565b60006080820190506130da6000830187612bce565b6130e76020830186612bce565b6130f46040830185612f91565b81810360608301526131068184612bec565b905095945050505050565b60006020820190506131266000830184612bdd565b92915050565b600060208201905081810360008301526131468184612c25565b905092915050565b6000602082019050818103600083015261316781612cb2565b9050919050565b6000602082019050818103600083015261318781612cd5565b9050919050565b600060208201905081810360008301526131a781612d1b565b9050919050565b600060208201905081810360008301526131c781612d3e565b9050919050565b600060208201905081810360008301526131e781612da7565b9050919050565b6000602082019050818103600083015261320781612dca565b9050919050565b6000602082019050818103600083015261322781612ded565b9050919050565b6000602082019050818103600083015261324781612e33565b9050919050565b6000602082019050818103600083015261326781612e56565b9050919050565b6000602082019050818103600083015261328781612e79565b9050919050565b600060208201905081810360008301526132a781612ebf565b9050919050565b600060208201905081810360008301526132c781612f05565b9050919050565b600060208201905081810360008301526132e781612f28565b9050919050565b6000602082019050818103600083015261330781612f4b565b9050919050565b60006020820190506133236000830184612f91565b92915050565b6000613333613344565b905061333f8282613614565b919050565b6000604051905090565b600067ffffffffffffffff8211156133695761336861371b565b5b602082029050602081019050919050565b600067ffffffffffffffff8211156133955761339461371b565b5b602082029050602081019050919050565b600067ffffffffffffffff8211156133c1576133c061371b565b5b6133ca8261374a565b9050602081019050919050565b600067ffffffffffffffff8211156133f2576133f161371b565b5b6133fb8261374a565b9050602081019050919050565b600081519050919050565b600081519050919050565b600082825260208201905092915050565b600082825260208201905092915050565b600081905092915050565b600061345682613596565b915061346183613596565b9250827fffffffffffffffffffffffffffffffffffffffffffffffffffffffffffffffff038211156134965761349561368e565b5b828201905092915050565b60006134ac82613596565b91506134b783613596565b9250826134c7576134c66136bd565b5b828204905092915050565b60006134dd82613596565b91506134e883613596565b9250817fffffffffffffffffffffffffffffffffffffffffffffffffffffffffffffffff04831182151516156135215761352061368e565b5b828202905092915050565b600061353782613576565b9050919050565b60008115159050919050565b60007fffffffff0000000000000000000000000000000000000000000000000000000082169050919050565b600073ffffffffffffffffffffffffffffffffffffffff82169050919050565b6000819050919050565b82818337600083830152505050565b60005b838110156135cd5780820151818401526020810190506135b2565b838111156135dc576000848401525b50505050565b600060028204905060018216806135fa57607f821691505b6020821081141561360e5761360d6136ec565b5b50919050565b61361d8261374a565b810181811067ffffffffffffffff8211171561363c5761363b61371b565b5b80604052505050565b600061365082613596565b91507fffffffffffffffffffffffffffffffffffffffffffffffffffffffffffffffff8214156136835761368261368e565b5b600182019050919050565b7f4e487b7100000000000000000000000000000000000000000000000000000000600052601160045260246000fd5b7f4e487b7100000000000000000000000000000000000000000000000000000000600052601260045260246000fd5b7f4e487b7100000000000000000000000000000000000000000000000000000000600052602260045260246000fd5b7f4e487b7100000000000000000000000000000000000000000000000000000000600052604160045260246000fd5b6000601f19601f8301169050919050565b7f222c226465736372697074696f6e223a20220000000000000000000000000000600082015250565b7f6e65774f776e657227732062616c616e6365206d757374206265207a65726f2e600082015250565b7f4f776e61626c653a206e6577206f776e657220697320746865207a65726f206160008201527f6464726573730000000000000000000000000000000000000000000000000000602082015250565b7f222c000000000000000000000000000000000000000000000000000000000000600082015250565b7f54686520746f2d61646472657373206d757374204e4f54206265204f574e455260008201527f2e00000000000000000000000000000000000000000000000000000000000000602082015250565b7f546865206c656e677468206f66205f746f416464726573736573206d7573742060008201527f6265206c657373207468616e206f7220657175616c20746f205f6d617842617460208201527f636853697a652e00000000000000000000000000000000000000000000000000604082015250565b7f2261747472696275746573223a205b5d00000000000000000000000000000000600082015250565b7f2265787465726e616c5f75726c223a2022000000000000000000000000000000600082015250565b7f5468652066726f6d2d61646472657373206973204e4f542074686520746f6b6560008201527f6e2049442773206f776e65722e00000000000000000000000000000000000000602082015250565b7f5f746f416464726573736573206d757374204e4f5420626520696e636c75646560008201527f64204f574e45522e000000000000000000000000000000000000000000000000602082015250565b7f54686520746f2d6164647265737320686173207468652073616d65206372656460008201527f656e7469616c20616c72656164792e0000000000000000000000000000000000602082015250565b7f7d00000000000000000000000000000000000000000000000000000000000000600082015250565b7f4f6e65206f72206d6f726520726563697069656e74206861732068616420616c60008201527f7265616479207468652073616d652063726564656e7469616c2e000000000000602082015250565b7f54686520746f6b656e20494420646f6573204e4f542065786973742e00000000600082015250565b7f4f776e61626c653a2063616c6c6572206973206e6f7420746865206f776e6572600082015250565b7f7b226e616d65223a202200000000000000000000000000000000000000000000600082015250565b7f55524920736574206f66206e6f6e6578697374656e7420746f6b656e00000000600082015250565b7f646174613a6170706c69636174696f6e2f6a736f6e3b6261736536342c000000600082015250565b7f546865206c656e677468206f66205f746f41646472657373657320616e64205f60008201527f65787465726e616c5552497320617265204e4f542073616d652e000000000000602082015250565b7f546865205f746f41646472657373657320697320656d7074792e000000000000600082015250565b7f546865206c656e677468206f66205f746f41646472657373657320616e64205f60008201527f696d6167655552497320617265204e4f542073616d652e000000000000000000602082015250565b7f222c22696d616765223a20220000000000000000000000000000000000000000600082015250565b613c668161352c565b8114613c7157600080fd5b50565b613c7d8161353e565b8114613c8857600080fd5b50565b613c948161354a565b8114613c9f57600080fd5b50565b613cab81613596565b8114613cb657600080fd5b5056fe4142434445464748494a4b4c4d4e4f505152535455565758595a6162636465666768696a6b6c6d6e6f707172737475767778797a303132333435363738392b2fa26469706673582212208e7ce21342c303e22063cab39fe6db6eb0e9a3f607edf35ac1cab7535f15244964736f6c63430008040033",
  "linkReferences": {},
  "deployedLinkReferences": {}
}